{
  "contractName": "SwapCopy",
  "abi": [
    {
      "inputs": [],
      "stateMutability": "nonpayable",
      "type": "constructor"
    },
    {
      "inputs": [
        {
          "internalType": "uint256",
          "name": "minAmountOut1",
          "type": "uint256"
        },
        {
          "internalType": "uint256",
          "name": "minAmountOut2",
          "type": "uint256"
        },
        {
          "internalType": "address",
          "name": "portfolioToken1",
          "type": "address"
        },
        {
          "internalType": "address",
          "name": "portfolioToken2",
          "type": "address"
        }
      ],
      "name": "generate5050Portfolio",
      "outputs": [],
      "stateMutability": "payable",
      "type": "function"
    },
    {
      "inputs": [
        {
          "internalType": "uint256",
          "name": "amountIn",
          "type": "uint256"
        },
        {
          "internalType": "address",
          "name": "toToken",
          "type": "address"
        }
      ],
      "name": "getExchangeRate",
      "outputs": [
        {
          "internalType": "uint256[]",
          "name": "",
          "type": "uint256[]"
        }
      ],
      "stateMutability": "view",
      "type": "function"
    }
  ],
  "bytecode": "0x608060405234801561001057600080fd5b507310ed43c718714eb63d5aa57b78b54704e256024e6000806101000a81548173ffffffffffffffffffffffffffffffffffffffff021916908373ffffffffffffffffffffffffffffffffffffffff160217905550610e2e806100746000396000f3fe6080604052600436106100295760003560e01c80631e64b91c1461002e578063c73ed0ac1461006b575b600080fd5b34801561003a57600080fd5b50610055600480360381019061005091906107d8565b610087565b60405161006291906108d6565b60405180910390f35b610085600480360381019061008091906108f8565b6102ad565b005b60606000600267ffffffffffffffff8111156100a6576100a561095f565b5b6040519080825280602002602001820160405280156100d45781602001602082028036833780820191505090505b50905060008054906101000a900473ffffffffffffffffffffffffffffffffffffffff1673ffffffffffffffffffffffffffffffffffffffff1663ad5c46486040518163ffffffff1660e01b8152600401602060405180830381865afa158015610142573d6000803e3d6000fd5b505050506040513d601f19601f8201168201806040525081019061016691906109a3565b8160008151811061017a576101796109d0565b5b602002602001019073ffffffffffffffffffffffffffffffffffffffff16908173ffffffffffffffffffffffffffffffffffffffff168152505082816001815181106101c9576101c86109d0565b5b602002602001019073ffffffffffffffffffffffffffffffffffffffff16908173ffffffffffffffffffffffffffffffffffffffff168152505060008054906101000a900473ffffffffffffffffffffffffffffffffffffffff1673ffffffffffffffffffffffffffffffffffffffff1663d06ca61f85836040518363ffffffff1660e01b815260040161025e929190610acc565b600060405180830381865afa15801561027b573d6000803e3d6000fd5b505050506040513d6000823e3d601f19601f820116820180604052508101906102a49190610c3b565b91505092915050565b6000600f426102bc9190610cb3565b905060006002346102cd9190610d38565b9050600081346102dd9190610d69565b90506000600267ffffffffffffffff8111156102fc576102fb61095f565b5b60405190808252806020026020018201604052801561032a5781602001602082028036833780820191505090505b50905060008054906101000a900473ffffffffffffffffffffffffffffffffffffffff1673ffffffffffffffffffffffffffffffffffffffff1663ad5c46486040518163ffffffff1660e01b8152600401602060405180830381865afa158015610398573d6000803e3d6000fd5b505050506040513d601f19601f820116820180604052508101906103bc91906109a3565b816000815181106103d0576103cf6109d0565b5b602002602001019073ffffffffffffffffffffffffffffffffffffffff16908173ffffffffffffffffffffffffffffffffffffffff1681525050858160018151811061041f5761041e6109d0565b5b602002602001019073ffffffffffffffffffffffffffffffffffffffff16908173ffffffffffffffffffffffffffffffffffffffff168152505060008054906101000a900473ffffffffffffffffffffffffffffffffffffffff1673ffffffffffffffffffffffffffffffffffffffff16637ff36ab5848a8433896040518663ffffffff1660e01b81526004016104b99493929190610dac565b60006040518083038185885af11580156104d7573d6000803e3d6000fd5b50505050506040513d6000823e3d601f19601f820116820180604052508101906105019190610c3b565b506000600267ffffffffffffffff81111561051f5761051e61095f565b5b60405190808252806020026020018201604052801561054d5781602001602082028036833780820191505090505b50905060008054906101000a900473ffffffffffffffffffffffffffffffffffffffff1673ffffffffffffffffffffffffffffffffffffffff1663ad5c46486040518163ffffffff1660e01b8152600401602060405180830381865afa1580156105bb573d6000803e3d6000fd5b505050506040513d601f19601f820116820180604052508101906105df91906109a3565b816000815181106105f3576105f26109d0565b5b602002602001019073ffffffffffffffffffffffffffffffffffffffff16908173ffffffffffffffffffffffffffffffffffffffff16815250508581600181518110610642576106416109d0565b5b602002602001019073ffffffffffffffffffffffffffffffffffffffff16908173ffffffffffffffffffffffffffffffffffffffff168152505060008054906101000a900473ffffffffffffffffffffffffffffffffffffffff1673ffffffffffffffffffffffffffffffffffffffff16637ff36ab5848a84338a6040518663ffffffff1660e01b81526004016106dc9493929190610dac565b60006040518083038185885af11580156106fa573d6000803e3d6000fd5b50505050506040513d6000823e3d601f19601f820116820180604052508101906107249190610c3b565b50505050505050505050565b6000604051905090565b600080fd5b600080fd5b6000819050919050565b61075781610744565b811461076257600080fd5b50565b6000813590506107748161074e565b92915050565b600073ffffffffffffffffffffffffffffffffffffffff82169050919050565b60006107a58261077a565b9050919050565b6107b58161079a565b81146107c057600080fd5b50565b6000813590506107d2816107ac565b92915050565b600080604083850312156107ef576107ee61073a565b5b60006107fd85828601610765565b925050602061080e858286016107c3565b9150509250929050565b600081519050919050565b600082825260208201905092915050565b6000819050602082019050919050565b61084d81610744565b82525050565b600061085f8383610844565b60208301905092915050565b6000602082019050919050565b600061088382610818565b61088d8185610823565b935061089883610834565b8060005b838110156108c95781516108b08882610853565b97506108bb8361086b565b92505060018101905061089c565b5085935050505092915050565b600060208201905081810360008301526108f08184610878565b905092915050565b600080600080608085870312156109125761091161073a565b5b600061092087828801610765565b945050602061093187828801610765565b9350506040610942878288016107c3565b9250506060610953878288016107c3565b91505092959194509250565b7f4e487b7100000000000000000000000000000000000000000000000000000000600052604160045260246000fd5b60008151905061099d816107ac565b92915050565b6000602082840312156109b9576109b861073a565b5b60006109c78482850161098e565b91505092915050565b7f4e487b7100000000000000000000000000000000000000000000000000000000600052603260045260246000fd5b610a0881610744565b82525050565b600081519050919050565b600082825260208201905092915050565b6000819050602082019050919050565b610a438161079a565b82525050565b6000610a558383610a3a565b60208301905092915050565b6000602082019050919050565b6000610a7982610a0e565b610a838185610a19565b9350610a8e83610a2a565b8060005b83811015610abf578151610aa68882610a49565b9750610ab183610a61565b925050600181019050610a92565b5085935050505092915050565b6000604082019050610ae160008301856109ff565b8181036020830152610af38184610a6e565b90509392505050565b600080fd5b6000601f19601f8301169050919050565b610b1b82610b01565b810181811067ffffffffffffffff82111715610b3a57610b3961095f565b5b80604052505050565b6000610b4d610730565b9050610b598282610b12565b919050565b600067ffffffffffffffff821115610b7957610b7861095f565b5b602082029050602081019050919050565b600080fd5b600081519050610b9e8161074e565b92915050565b6000610bb7610bb284610b5e565b610b43565b90508083825260208201905060208402830185811115610bda57610bd9610b8a565b5b835b81811015610c035780610bef8882610b8f565b845260208401935050602081019050610bdc565b5050509392505050565b600082601f830112610c2257610c21610afc565b5b8151610c32848260208601610ba4565b91505092915050565b600060208284031215610c5157610c5061073a565b5b600082015167ffffffffffffffff811115610c6f57610c6e61073f565b5b610c7b84828501610c0d565b91505092915050565b7f4e487b7100000000000000000000000000000000000000000000000000000000600052601160045260246000fd5b6000610cbe82610744565b9150610cc983610744565b9250827fffffffffffffffffffffffffffffffffffffffffffffffffffffffffffffffff03821115610cfe57610cfd610c84565b5b828201905092915050565b7f4e487b7100000000000000000000000000000000000000000000000000000000600052601260045260246000fd5b6000610d4382610744565b9150610d4e83610744565b925082610d5e57610d5d610d09565b5b828204905092915050565b6000610d7482610744565b9150610d7f83610744565b925082821015610d9257610d91610c84565b5b828203905092915050565b610da68161079a565b82525050565b6000608082019050610dc160008301876109ff565b8181036020830152610dd38186610a6e565b9050610de26040830185610d9d565b610def60608301846109ff565b9594505050505056fea2646970667358221220217248bd7865c04f944e7cb74e39df41bef1a193b54cc7ae64f89b076056ce0564736f6c634300080c0033",
  "immutableReferences": {},
  "source": "// SPDX-License-Identifier: MIT\npragma solidity >=0.4.22 <0.9.0;\n\nimport \"./IPancakeRouter02.sol\";\nimport \"@openzeppelin/contracts/token/ERC20/IERC20.sol\";\n\ncontract SwapCopy {\n    IPancakeRouter02 pancakeswapRouter;\n\n    constructor() {\n        pancakeswapRouter = IPancakeRouter02(\n            0x10ED43C718714eb63d5aA57B78B54704E256024E\n        );\n    }\n\n    /*\n\n    *** Some ideas for the portfolio creation with multiple assets ***\n\n    struct TokenInformation {\n        address tokenAddress;\n        uint256 weight;\n        uint256 minAmountOut;\n    }\n\n    TokenInformation[] portfolio;\n\n    function validPortfolio(TokenInformation[] memory portfolioTokens)\n        public\n        view\n        returns (bool)\n    {\n        uint256 weight;\n        for (uint256 i; i < portfolio.length; i++) {\n            weight += portfolioTokens[i].weight;\n        }\n\n        return weight == 100;\n    }\n\n    function generatePortfolio(TokenInformation[] memory portfolioTokens)\n        public\n        payable\n    {\n        require(validPortfolio(portfolioTokens));\n\n        uint256 amountPerShare = msg.value / 100;\n        uint256 deadline = block.timestamp + 15;\n\n        for (uint256 i; i < portfolio.length; i++) {\n            address[] memory path = new address[](2);\n            path[0] = pancakeswapRouter.WETH();\n            path[1] = portfolioTokens[i].tokenAddress;\n\n            uint256 amount = amountPerShare * portfolioTokens[i].weight;\n\n            pancakeswapRouter.swapExactETHForTokens{value: amount}(\n                portfolioTokens[i].minAmountOut,\n                path,\n                msg.sender,\n                deadline\n            );\n        }\n    }\n    */\n    function generate5050Portfolio(\n        uint256 minAmountOut1,\n        uint256 minAmountOut2,\n        address portfolioToken1,\n        address portfolioToken2\n    ) public payable {\n        uint256 deadline = block.timestamp + 15;\n\n        uint256 amount = msg.value / 2;\n        uint256 amount2 = msg.value - amount;\n\n        address[] memory path = new address[](2);\n        path[0] = pancakeswapRouter.WETH();\n        path[1] = portfolioToken1;\n\n        pancakeswapRouter.swapExactETHForTokens{value: amount}(\n            minAmountOut1,\n            path,\n            msg.sender,\n            deadline\n        );\n\n        address[] memory path2 = new address[](2);\n        path2[0] = pancakeswapRouter.WETH();\n        path2[1] = portfolioToken2;\n\n        pancakeswapRouter.swapExactETHForTokens{value: amount2}(\n            minAmountOut2,\n            path2,\n            msg.sender,\n            deadline\n        );\n    }\n\n    /*function swapTokenToToken(\n        uint256 amount,\n        uint256 amountOutMin,\n        address[] calldata path\n    ) public {\n        require(path.length >= 2);\n\n        uint256 deadline = block.timestamp + 15;\n        address fromToken = path[0];\n\n        // Approve the router to spend amount\n        IERC20(fromToken).approve(\n            0x10ED43C718714eb63d5aA57B78B54704E256024E,\n            amount\n        );\n\n        pancakeswapRouter.swapExactTokensForTokens(\n            amount,\n            amountOutMin,\n            path,\n            msg.sender,\n            deadline\n        );\n    }*/\n\n    function getExchangeRate(uint256 amountIn, address toToken)\n        public\n        view\n        returns (uint256[] memory)\n    {\n        address[] memory path = new address[](2);\n        path[0] = pancakeswapRouter.WETH();\n        path[1] = toToken;\n\n        return pancakeswapRouter.getAmountsOut(amountIn, path);\n    }\n}\n",
  "sourcePath": "/Users/navinalang/Navina-workgroup/01_dex/b_pancakeswap/pancakeswap-lp-mainnet/contracts/SwapCopy.sol",
  "compiler": {
    "name": "solc",
    "version": "0.8.12+commit.f00d7308.Emscripten.clang"
  },
  "schemaVersion": "3.4.4",
  "updatedAt": "2022-03-10T17:49:10.332Z",
  "devdoc": {
    "kind": "dev",
    "methods": {},
    "version": 1
  },
  "userdoc": {
    "kind": "user",
    "methods": {},
    "version": 1
  }
}