{
  "contractName": "Swap",
  "abi": [
    {
      "inputs": [],
      "stateMutability": "nonpayable",
      "type": "constructor"
    },
    {
      "inputs": [
        {
          "internalType": "address[]",
          "name": "portfolioAssets",
          "type": "address[]"
        }
      ],
      "name": "generatePortfolioWith10Assets",
      "outputs": [],
      "stateMutability": "payable",
      "type": "function",
      "payable": true
    },
    {
      "inputs": [
        {
          "internalType": "uint256",
          "name": "amountIn",
          "type": "uint256"
        },
        {
          "internalType": "address",
          "name": "toToken",
          "type": "address"
        }
      ],
      "name": "getExchangeRate",
      "outputs": [
        {
          "internalType": "uint256[]",
          "name": "",
          "type": "uint256[]"
        }
      ],
      "stateMutability": "view",
      "type": "function",
      "constant": true
    }
  ],
  "bytecode": "0x608060405234801561001057600080fd5b507310ed43c718714eb63d5aa57b78b54704e256024e6000806101000a81548173ffffffffffffffffffffffffffffffffffffffff021916908373ffffffffffffffffffffffffffffffffffffffff160217905550610d30806100746000396000f3fe6080604052600436106100295760003560e01c80631e64b91c1461002e578063a3589d271461006b575b600080fd5b34801561003a57600080fd5b50610055600480360381019061005091906105db565b610087565b60405161006291906106d9565b60405180910390f35b61008560048036038101906100809190610854565b6102ad565b005b60606000600267ffffffffffffffff8111156100a6576100a5610711565b5b6040519080825280602002602001820160405280156100d45781602001602082028036833780820191505090505b50905060008054906101000a900473ffffffffffffffffffffffffffffffffffffffff1673ffffffffffffffffffffffffffffffffffffffff1663ad5c46486040518163ffffffff1660e01b8152600401602060405180830381865afa158015610142573d6000803e3d6000fd5b505050506040513d601f19601f8201168201806040525081019061016691906108b2565b8160008151811061017a576101796108df565b5b602002602001019073ffffffffffffffffffffffffffffffffffffffff16908173ffffffffffffffffffffffffffffffffffffffff168152505082816001815181106101c9576101c86108df565b5b602002602001019073ffffffffffffffffffffffffffffffffffffffff16908173ffffffffffffffffffffffffffffffffffffffff168152505060008054906101000a900473ffffffffffffffffffffffffffffffffffffffff1673ffffffffffffffffffffffffffffffffffffffff1663d06ca61f85836040518363ffffffff1660e01b815260040161025e9291906109db565b600060405180830381865afa15801561027b573d6000803e3d6000fd5b505050506040513d6000823e3d601f19601f820116820180604052508101906102a49190610ae3565b91505092915050565b6000600f426102bc9190610b5b565b90506000600a346102cd9190610be0565b905060005b835181101561052d576000600267ffffffffffffffff8111156102f8576102f7610711565b5b6040519080825280602002602001820160405280156103265781602001602082028036833780820191505090505b50905060008054906101000a900473ffffffffffffffffffffffffffffffffffffffff1673ffffffffffffffffffffffffffffffffffffffff1663ad5c46486040518163ffffffff1660e01b8152600401602060405180830381865afa158015610394573d6000803e3d6000fd5b505050506040513d601f19601f820116820180604052508101906103b891906108b2565b816000815181106103cc576103cb6108df565b5b602002602001019073ffffffffffffffffffffffffffffffffffffffff16908173ffffffffffffffffffffffffffffffffffffffff1681525050848281518110610419576104186108df565b5b602002602001015181600181518110610435576104346108df565b5b602002602001019073ffffffffffffffffffffffffffffffffffffffff16908173ffffffffffffffffffffffffffffffffffffffff168152505060008054906101000a900473ffffffffffffffffffffffffffffffffffffffff1673ffffffffffffffffffffffffffffffffffffffff16637ff36ab58460008433896040518663ffffffff1660e01b81526004016104d09493929190610c65565b60006040518083038185885af11580156104ee573d6000803e3d6000fd5b50505050506040513d6000823e3d601f19601f820116820180604052508101906105189190610ae3565b5050808061052590610cb1565b9150506102d2565b50505050565b6000604051905090565b600080fd5b600080fd5b6000819050919050565b61055a81610547565b811461056557600080fd5b50565b60008135905061057781610551565b92915050565b600073ffffffffffffffffffffffffffffffffffffffff82169050919050565b60006105a88261057d565b9050919050565b6105b88161059d565b81146105c357600080fd5b50565b6000813590506105d5816105af565b92915050565b600080604083850312156105f2576105f161053d565b5b600061060085828601610568565b9250506020610611858286016105c6565b9150509250929050565b600081519050919050565b600082825260208201905092915050565b6000819050602082019050919050565b61065081610547565b82525050565b60006106628383610647565b60208301905092915050565b6000602082019050919050565b60006106868261061b565b6106908185610626565b935061069b83610637565b8060005b838110156106cc5781516106b38882610656565b97506106be8361066e565b92505060018101905061069f565b5085935050505092915050565b600060208201905081810360008301526106f3818461067b565b905092915050565b600080fd5b6000601f19601f8301169050919050565b7f4e487b7100000000000000000000000000000000000000000000000000000000600052604160045260246000fd5b61074982610700565b810181811067ffffffffffffffff8211171561076857610767610711565b5b80604052505050565b600061077b610533565b90506107878282610740565b919050565b600067ffffffffffffffff8211156107a7576107a6610711565b5b602082029050602081019050919050565b600080fd5b60006107d06107cb8461078c565b610771565b905080838252602082019050602084028301858111156107f3576107f26107b8565b5b835b8181101561081c578061080888826105c6565b8452602084019350506020810190506107f5565b5050509392505050565b600082601f83011261083b5761083a6106fb565b5b813561084b8482602086016107bd565b91505092915050565b60006020828403121561086a5761086961053d565b5b600082013567ffffffffffffffff81111561088857610887610542565b5b61089484828501610826565b91505092915050565b6000815190506108ac816105af565b92915050565b6000602082840312156108c8576108c761053d565b5b60006108d68482850161089d565b91505092915050565b7f4e487b7100000000000000000000000000000000000000000000000000000000600052603260045260246000fd5b61091781610547565b82525050565b600081519050919050565b600082825260208201905092915050565b6000819050602082019050919050565b6109528161059d565b82525050565b60006109648383610949565b60208301905092915050565b6000602082019050919050565b60006109888261091d565b6109928185610928565b935061099d83610939565b8060005b838110156109ce5781516109b58882610958565b97506109c083610970565b9250506001810190506109a1565b5085935050505092915050565b60006040820190506109f0600083018561090e565b8181036020830152610a02818461097d565b90509392505050565b600067ffffffffffffffff821115610a2657610a25610711565b5b602082029050602081019050919050565b600081519050610a4681610551565b92915050565b6000610a5f610a5a84610a0b565b610771565b90508083825260208201905060208402830185811115610a8257610a816107b8565b5b835b81811015610aab5780610a978882610a37565b845260208401935050602081019050610a84565b5050509392505050565b600082601f830112610aca57610ac96106fb565b5b8151610ada848260208601610a4c565b91505092915050565b600060208284031215610af957610af861053d565b5b600082015167ffffffffffffffff811115610b1757610b16610542565b5b610b2384828501610ab5565b91505092915050565b7f4e487b7100000000000000000000000000000000000000000000000000000000600052601160045260246000fd5b6000610b6682610547565b9150610b7183610547565b9250827fffffffffffffffffffffffffffffffffffffffffffffffffffffffffffffffff03821115610ba657610ba5610b2c565b5b828201905092915050565b7f4e487b7100000000000000000000000000000000000000000000000000000000600052601260045260246000fd5b6000610beb82610547565b9150610bf683610547565b925082610c0657610c05610bb1565b5b828204905092915050565b6000819050919050565b6000819050919050565b6000610c40610c3b610c3684610c11565b610c1b565b610547565b9050919050565b610c5081610c25565b82525050565b610c5f8161059d565b82525050565b6000608082019050610c7a6000830187610c47565b8181036020830152610c8c818661097d565b9050610c9b6040830185610c56565b610ca8606083018461090e565b95945050505050565b6000610cbc82610547565b91507fffffffffffffffffffffffffffffffffffffffffffffffffffffffffffffffff821415610cef57610cee610b2c565b5b60018201905091905056fea2646970667358221220cf052d0e8e1dbb13b226ae79ab9bea223c0d4d6abab3136aa38a771822b1d47a64736f6c634300080c0033",
  "immutableReferences": {},
  "source": "// SPDX-License-Identifier: MIT\npragma solidity >=0.4.22 <0.9.0;\n\nimport \"./IPancakeRouter02.sol\";\nimport \"@openzeppelin/contracts/token/ERC20/IERC20.sol\";\n\ncontract Swap {\n    IPancakeRouter02 pancakeswapRouter;\n\n    constructor() {\n        pancakeswapRouter = IPancakeRouter02(\n            0x10ED43C718714eb63d5aA57B78B54704E256024E\n        );\n    }\n\n    function generatePortfolioWith10Assets(address[] memory portfolioAssets)\n        public\n        payable\n    {\n        uint256 deadline = block.timestamp + 15;\n        uint256 amount = msg.value / 10;\n\n        for (uint256 i = 0; i < portfolioAssets.length; i++) {\n            address[] memory path = new address[](2);\n            path[0] = pancakeswapRouter.WETH();\n            path[1] = portfolioAssets[i];\n\n            pancakeswapRouter.swapExactETHForTokens{value: amount}(\n                0,\n                path,\n                msg.sender,\n                deadline\n            );\n        }\n    }\n\n    function getExchangeRate(uint256 amountIn, address toToken)\n        public\n        view\n        returns (uint256[] memory)\n    {\n        address[] memory path = new address[](2);\n        path[0] = pancakeswapRouter.WETH();\n        path[1] = toToken;\n\n        return pancakeswapRouter.getAmountsOut(amountIn, path);\n    }\n\n    /*struct TokenInformation {\n        address tokenAddress;\n        uint256 weight;\n        uint256 minAmountOut;\n    }\n\n    TokenInformation[] portfolio;\n\n    function validPortfolio(TokenInformation[] memory portfolioTokens)\n        public\n        view\n        returns (bool)\n    {\n        uint256 weight;\n        for (uint256 i; i < portfolio.length; i++) {\n            weight += portfolioTokens[i].weight;\n        }\n\n        return weight == 100;\n    }\n\n    function generatePortfolio(TokenInformation[] memory portfolioTokens)\n        public\n        payable\n    {\n        require(validPortfolio(portfolioTokens));\n\n        uint256 amountPerShare = msg.value / 100;\n        uint256 deadline = block.timestamp + 15;\n\n        for (uint256 i; i < portfolio.length; i++) {\n            address[] memory path = new address[](2);\n            path[0] = pancakeswapRouter.WETH();\n            path[1] = portfolioTokens[i].tokenAddress;\n\n            uint256 amount = amountPerShare * portfolioTokens[i].weight;\n\n            pancakeswapRouter.swapExactETHForTokens{value: amount}(\n                portfolioTokens[i].minAmountOut,\n                path,\n                msg.sender,\n                deadline\n            );\n        }\n    }\n    \n    function generate5050Portfolio(\n        uint256 minAmountOut1,\n        uint256 minAmountOut2,\n        address portfolioToken1,\n        address portfolioToken2\n    ) public payable {\n        uint256 deadline = block.timestamp + 15;\n\n        uint256 amount = msg.value / 2;\n        uint256 amount2 = msg.value - amount;\n\n        address[] memory path = new address[](2);\n        path[0] = pancakeswapRouter.WETH();\n        path[1] = portfolioToken1;\n\n        pancakeswapRouter.swapExactETHForTokens{value: amount}(\n            minAmountOut1,\n            path,\n            msg.sender,\n            deadline\n        );\n\n        address[] memory path2 = new address[](2);\n        path2[0] = pancakeswapRouter.WETH();\n        path2[1] = portfolioToken2;\n\n        pancakeswapRouter.swapExactETHForTokens{value: amount2}(\n            minAmountOut2,\n            path2,\n            msg.sender,\n            deadline\n        );\n    }\n\n    function swapTokenToToken(\n        uint256 amount,\n        uint256 amountOutMin,\n        address[] calldata path\n    ) public {\n        require(path.length >= 2);\n\n        uint256 deadline = block.timestamp + 15;\n        address fromToken = path[0];\n\n        // Approve the router to spend amount\n        IERC20(fromToken).approve(\n            0x10ED43C718714eb63d5aA57B78B54704E256024E,\n            amount\n        );\n\n        pancakeswapRouter.swapExactTokensForTokens(\n            amount,\n            amountOutMin,\n            path,\n            msg.sender,\n            deadline\n        );\n    }*/\n}\n",
  "sourcePath": "/Users/navinalang/Navina-workgroup/01_dex/b_pancakeswap/pancakeswap-lp-mainnet/contracts/Swap.sol",
  "compiler": {
    "name": "solc",
    "version": "0.8.12+commit.f00d7308.Emscripten.clang"
  },
  "schemaVersion": "3.4.4",
  "updatedAt": "2022-03-11T15:18:22.329Z",
  "networkType": "ethereum",
  "devdoc": {
    "kind": "dev",
    "methods": {},
    "version": 1
  },
  "userdoc": {
    "kind": "user",
    "methods": {},
    "version": 1
  }
}